{
  "_format": "hh-sol-artifact-1",
  "contractName": "MyOperator",
  "sourceName": "contracts/MyOperator.sol",
  "abi": [
    {
      "inputs": [
        {
          "internalType": "address",
          "name": "_addressBookAddress",
          "type": "address"
        }
      ],
      "stateMutability": "nonpayable",
      "type": "constructor"
    },
    {
      "inputs": [
        {
          "internalType": "address",
          "name": "assetAddress",
          "type": "address"
        },
        {
          "internalType": "address",
          "name": "collateralAddress",
          "type": "address"
        },
        {
          "internalType": "uint256",
          "name": "buyPrice",
          "type": "uint256"
        },
        {
          "internalType": "uint256",
          "name": "sellPrice",
          "type": "uint256"
        },
        {
          "internalType": "uint256",
          "name": "collateralAmount",
          "type": "uint256"
        }
      ],
      "name": "bullCallSpread",
      "outputs": [],
      "stateMutability": "nonpayable",
      "type": "function"
    }
  ],
  "bytecode": "0x608060405234801561001057600080fd5b5060405161099d38038061099d8339818101604052810190610032919061016d565b80600160006101000a81548173ffffffffffffffffffffffffffffffffffffffff021916908373ffffffffffffffffffffffffffffffffffffffff160217905550600160009054906101000a900473ffffffffffffffffffffffffffffffffffffffff1673ffffffffffffffffffffffffffffffffffffffff16633018205f6040518163ffffffff1660e01b815260040160206040518083038186803b1580156100db57600080fd5b505afa1580156100ef573d6000803e3d6000fd5b505050506040513d601f19601f82011682018060405250810190610113919061016d565b6000806101000a81548173ffffffffffffffffffffffffffffffffffffffff021916908373ffffffffffffffffffffffffffffffffffffffff160217905550506101df565b600081519050610167816101c8565b92915050565b60006020828403121561017f57600080fd5b600061018d84828501610158565b91505092915050565b60006101a1826101a8565b9050919050565b600073ffffffffffffffffffffffffffffffffffffffff82169050919050565b6101d181610196565b81146101dc57600080fd5b50565b6107af806101ee6000396000f3fe608060405234801561001057600080fd5b506004361061002b5760003560e01c8063d4423f4c14610030575b600080fd5b61004a6004803603810190610045919061040c565b61004c565b005b60003390506060600367ffffffffffffffff8111801561006b57600080fd5b506040519080825280602002602001820160405280156100a557816020015b610092610350565b81526020019060019003908161008a5790505b509050604051806101000160405280600460098111156100c157fe5b81526020018373ffffffffffffffffffffffffffffffffffffffff1681526020018373ffffffffffffffffffffffffffffffffffffffff1681526020018873ffffffffffffffffffffffffffffffffffffffff1681526020016001815260200186815260200160008152602001604051806020016040528060008152508152508160008151811061014e57fe5b60200260200101819052506040518061010001604052806002600981111561017257fe5b81526020018373ffffffffffffffffffffffffffffffffffffffff1681526020018373ffffffffffffffffffffffffffffffffffffffff1681526020018873ffffffffffffffffffffffffffffffffffffffff168152602001600181526020018581526020016000815260200160405180602001604052806000815250815250816001815181106101ff57fe5b60200260200101819052506040518061010001604052806005600981111561022357fe5b81526020018373ffffffffffffffffffffffffffffffffffffffff1681526020018373ffffffffffffffffffffffffffffffffffffffff1681526020018773ffffffffffffffffffffffffffffffffffffffff168152602001600181526020018481526020016000815260200160405180602001604052806000815250815250816002815181106102b057fe5b60200260200101819052506000809054906101000a900473ffffffffffffffffffffffffffffffffffffffff1673ffffffffffffffffffffffffffffffffffffffff1663b617f0c6826040518263ffffffff1660e01b81526004016103159190610622565b600060405180830381600087803b15801561032f57600080fd5b505af1158015610343573d6000803e3d6000fd5b5050505050505050505050565b6040518061010001604052806000600981111561036957fe5b8152602001600073ffffffffffffffffffffffffffffffffffffffff168152602001600073ffffffffffffffffffffffffffffffffffffffff168152602001600073ffffffffffffffffffffffffffffffffffffffff168152602001600081526020016000815260200160008152602001606081525090565b6000813590506103f18161074b565b92915050565b60008135905061040681610762565b92915050565b600080600080600060a0868803121561042457600080fd5b6000610432888289016103e2565b9550506020610443888289016103e2565b9450506040610454888289016103f7565b9350506060610465888289016103f7565b9250506080610476888289016103f7565b9150509295509295909350565b600061048f8383610563565b905092915050565b6104a081610699565b82525050565b60006104b182610654565b6104bb8185610677565b9350836020820285016104cd85610644565b8060005b8581101561050957848403895281516104ea8582610483565b94506104f58361066a565b925060208a019950506001810190506104d1565b50829750879550505050505092915050565b60006105268261065f565b6105308185610688565b93506105408185602086016106fa565b6105498161072d565b840191505092915050565b61055d816106e8565b82525050565b60006101008301600083015161057c6000860182610554565b50602083015161058f6020860182610497565b5060408301516105a26040860182610497565b5060608301516105b56060860182610497565b5060808301516105c86080860182610613565b5060a08301516105db60a0860182610613565b5060c08301516105ee60c0860182610613565b5060e083015184820360e0860152610606828261051b565b9150508091505092915050565b61061c816106de565b82525050565b6000602082019050818103600083015261063c81846104a6565b905092915050565b6000819050602082019050919050565b600081519050919050565b600081519050919050565b6000602082019050919050565b600082825260208201905092915050565b600082825260208201905092915050565b60006106a4826106be565b9050919050565b60008190506106b98261073e565b919050565b600073ffffffffffffffffffffffffffffffffffffffff82169050919050565b6000819050919050565b60006106f3826106ab565b9050919050565b60005b838110156107185780820151818401526020810190506106fd565b83811115610727576000848401525b50505050565b6000601f19601f8301169050919050565b600a811061074857fe5b50565b61075481610699565b811461075f57600080fd5b50565b61076b816106de565b811461077657600080fd5b5056fea2646970667358221220fcb6297586f6e7c47549c816da22ce734ddf917c82ca5221b8c454f49e04084764736f6c634300060a0033",
  "linkReferences": {},
  "deployedLinkReferences": {}
}